:100000000C9451000C946E000C946E000C946505D9
:100010000C946E000C946E000C946E000C949C0575
:100020000C946E000C946E000C946E000C946E0098
:100030000C946E000C946E000C94F2000C946E0004
:100040000C946E000C946E000C946E000C946E0078
:100050000C946E000C946E000C946E000C946E0068
:100060000C946E000C946E0000020400030001105A
:100070000302000003020100060004000605002040
:100080000605040014774C45278584170405FFDF17
:10009000EFFD7FF75F5755FCBC9CBE3677DD9C00BB
:1000A000000011241FBECFEFD8E0DEBFCDBF11E0AE
:1000B000A0E0B1E0E0EBFBE002C005900D92A230C1
:1000C000B107D9F721E0A2E0B1E001C01D92AB3148
:1000D000B207E1F70E94CA040C94D6050C94000004
:1000E00090930301809302010895909305018093FA
:1000F000040108958FB7F89420910B0130910C0101
:100100008FBFC90108952FB7F89490930C01809385
:100110000B012FBF089583B184FF02C092E001C09C
:1001200090E086958170892BE0910601EF7094E054
:10013000E99FF0011124E80FF11DE859FF4FE49108
:10014000E0930601E07391F0E093090180910B01C7
:1001500090910C01E03211F4019601C00197909347
:100160000C0180930B0181E080930A01089585B111
:10017000826185B90C948B000E948B0080910A01EA
:10018000882349F0E0910401F0910501309709F0CE
:10019000099510920A0108958FEF8AB98BB987B13A
:1001A0008F6087B988B18F6088B984B5826084BD5B
:1001B00085B5856085BD86E287BDEEE6F0E080818D
:1001C000826080830895EEE6F0E080818260808323
:1001D0000895EEE6F0E080818D7F808388B18F60A6
:1001E00088B908951F920F920FB60F9211242F9382
:1001F0008F939F93EF93FF9388B1807F88B980910D
:100200000001813021F48BB1E0910D0111C08230E9
:1002100021F48BB1E09110010BC0843021F48BB13B
:10022000E0910F0105C0883059F48BB1E0910E01C7
:10023000F0E0EC57FF4FE491EB7F8470E82BEBB9D3
:1002400098B120910001822F8F7080959F70892B2B
:1002500088B9822F880F893008F401C081E080932B
:100260000001FF91EF919F918F912F910F900FBE01
:100270000F901F90189588EB9BE09093140180934A
:10028000130180910101811106C081E08093010179
:100290002B980C94E300833081F481E0809301017A
:1002A0002B980E94E30010920E0185E080930F01CD
:1002B0001092100110920D010895109201010895FD
:1002C00088EB9BE0909314018093130180910101CE
:1002D000882311F0833031F481E0809301012B9861
:1002E0000C94E300813011F482E003C0823019F4F1
:1002F00081E0809301010895809107018230F1F03F
:100300002CF4882349F0813049F50AC08430B1F0DB
:100310008CF0853019F516C00E94E3002B9A03C0BB
:100320000E94E9002B9884E190E090931201809361
:10033000110114C02B980E94E900F5CF2B9A0E945E
:10034000E300F1CF2B980E94E9008CE390E09093BA
:100350001201809311018FEF8093070180910701B3
:100360008F5F80930701089580910F018930C0F05D
:1003700010920F0180910E01893060F010920E01F1
:1003800080910D01811111C08091100181110DC06A
:1003900081E009C080910E018F5F80930E01089566
:1003A00080910F018F5F80930F01089580910D015F
:1003B0008930D0F010920D0180911001853070F0DD
:1003C000109210010E94B40180910E01811111C0A0
:1003D00080910F0181110DC081E009C08091100151
:1003E0008F5F80931001089580910D018F5F80933E
:1003F0000D01089580910F0181110EC089E0809355
:100400000F0190910E01911101C003C080910E0166
:10041000815080930E01089580910F018150809347
:100420000F0180910E01811115C080910F01811182
:1004300011C08091100181110DC080910D018111B9
:1004400009C089E080930E0180930F011092100182
:1004500010920D01089580910D01811112C089E063
:1004600080930D0180911001811105C085E080937A
:1004700010010C94FA0180911001815080931001B9
:10048000089580910D01815080930D0180910E019E
:10049000811119C080910F01811115C08091100147
:1004A000811111C080910D0181110DC08091010158
:1004B000882349F089E080930E0180930F01109208
:1004C000100110920D01089588EB9BE090931401A8
:1004D000809313012B9A86E690E20197F1F70000D2
:1004E0002B9880910101833029F481E080930101F0
:1004F0000E94E3009091090180910101903241F442
:10050000823010F40C94B401823051F40C94D60172
:10051000823010F40C94FA01823011F40C942B0206
:10052000089580910801823020F00E942B021092E1
:10053000080180910E01811115C080910F01811178
:1005400011C08091100181110DC080910D018111A8
:1005500009C088EB9BE0909314018093130183E022
:1005600080930101809108018F5F809308010895B5
:10057000BF92CF92DF92EF92FF920F931F93CF9390
:10058000DF93EC012115310511F424E130E0011570
:10059000110511F406E910E0FB0190819423BB24BE
:1005A000B3948881992311F0B12C06C0811104C045
:1005B000B8828FE090E012C0882309F44BC0BB20C2
:1005C00091F08130D9F48091190190911A01892B11
:1005D00009F040C082E0888385E090E090931A01A2
:1005E0008093190137C08230A8F1843098F5E11466
:1005F000F10411F0F701099518822CC0823069F4DA
:100600008091190190911A01892B21F583E088834B
:1006100010931A01009319011DC0833041F4809199
:10062000190190911A01892BA9F484E012C0843039
:1006300089F48091190190911A01892B59F4309312
:100640001A0120931901C114D10411F0F601099582
:1006500085E088838881833018F0B11001C018824A
:10066000DF91CF911F910F91FF90EF90DF90CF908E
:10067000BF9008952D9A8AE080930E0180930F0118
:100680008093100180930D019BE090930E01909355
:100690000F019093100190930D0122E333EB42E0A0
:1006A000215030404040E1F700C000C02CE02093D2
:1006B0000E0120930F012093100120930D0152E3AE
:1006C00063EB32E0515060403040E1F700C000C0C1
:1006D0003DE030930E0130930F01309310013093C1
:1006E0000D0142E353EB62E0415050406040E1F7BE
:1006F00000C000C020930E0120930F012093100131
:1007000020930D0122E333EB42E021503040404082
:10071000E1F700C000C090930E0190930F019093F9
:10072000100190930D0152E363EB22E051506040C1
:100730002040E1F700C000C080930E0180930F01BC
:100740008093100180930D0132E343EB52E031506E
:1007500040405040E1F700C000C036E130930E0148
:1007600080930F018093100180930D0162E323EBCE
:1007700042E0615020404040E1F700C000C028E165
:1007800020930E0180930F018093100180930D013F
:1007900052E363EB42E0515060404040E1F700C05B
:1007A00000C080930E0130930F018093100180935D
:1007B0000D0152E363EB42E0515060404040E1F7ED
:1007C00000C000C080930E0120930F0180931001A0
:1007D00080930D0152E363EB42E051506040404092
:1007E000E1F700C000C080930E0180930F013093A9
:1007F000100180930D0152E363EB42E051506040E1
:100800004040E1F700C000C080930E0180930F01CB
:100810002093100180930D0152E363EB42E05150AD
:1008200060404040E1F700C000C080930E0180931B
:100830000F018093100130930D0152E363EB32E01E
:10084000515060403040E1F700C000C080930E017D
:1008500080930F018093100120930D0142E353EB2D
:1008600062E0415050406040E1F700C000C080931A
:100870000E0180930F018093100180930D0182E39C
:1008800023EB32E0815020403040E1F700C000C04F
:1008900090930E0142E353EB62E0415050406040C0
:1008A000E1F700C000C090930F0182E323EB32E038
:1008B000815020403040E1F700C000C0909310010B
:1008C00042E353EB62E0415050406040E1F700C02A
:1008D00000C090930D0182E393EB22E081509040A1
:1008E0002040E1F700C000C080E180930D0132E3B9
:1008F00043EB52E0315040405040E1F700C000C0AF
:1009000081E180930D0162E383EB92E061508040CE
:100910009040E1F700C000C082E180930D0122E326
:1009200033EB42E0215030404040E1F700C000C0CE
:1009300089E18093100152E363EB92E051506040F3
:100940009040E1F700C000C080930F0122E333EB39
:1009500042E0215030404040E1F700C000C08093A9
:100960000E0152E363EB82E0515060408040E1F7BA
:1009700000C000C08AE180930E0192E323EB32E0D5
:10098000915020403040E1F700C000C085E18093E5
:100990000E0108950E94CC000E94B70084E692E008
:1009A0000E947500239A22982A9A8091B000826052
:1009B0008093B0008091B10087608093B1008BE696
:1009C0008093B3008091700082608093700080916A
:1009D0006800816080936800D89A80916B008F7D59
:1009E00080936B0083B7846083BF8AE080930E019D
:1009F00080930F018093100180930D0178940E94E1
:100A00003A0310920E0185E080930F0110921001BD
:100A100010920D0188EB9BE09093140180931301D9
:100A2000C2E3D0E00E94BC008BE3C82E81E0D82E48
:100A300090E6E92E91E0F92E09E110E021E030E0A6
:100A400044E063E270E088E191E00E94B8028091A6
:100A5000160190911701892B71F4D0931701C0935F
:100A600016018BB194E089278BB980910101811126
:100A700002C00E9491028091110190911201892B74
:100A800031F480910101833011F40E947C01809146
:100A9000130190911401892B29F68091010188237B
:100AA00009F2809170008D7F809370000E94E900B0
:100AB00080916B00806280936B0083B7816083BFFD
:100AC000889583B78E7F83BFADCF1F920F920FB6ED
:100AD0000F9211242F933F934F935F936F937F93C4
:100AE0008F939F93AF93BF93EF93FF9383B78E7FC3
:100AF00083BF0E94E300E0E7F0E0808182608083B2
:100B0000EBE6F0E080818F7D808388EB9BE0909323
:100B1000140180931301FF91EF91BF91AF919F91C9
:100B20008F917F916F915F914F913F912F910F9096
:100B30000FBE0F901F9018951F920F920FB60F9235
:100B400011248F939F938091190190911A0100971E
:100B500029F0019790931A01809319018091160151
:100B600090911701009729F00197909317018093B6
:100B700016018091110190911201009729F00197BF
:100B800090931201809311018091130190911401AF
:100B9000009729F0019790931401809313019F917E
:100BA0008F910F900FBE0F901F901895F894FFCF64
:020BB000010141
:00000001FF
