:100000000C9451000C946E000C946E000C946505D9
:100010000C946E000C946E000C946E000C949C0575
:100020000C946E000C946E000C946E000C946E0098
:100030000C946E000C946E000C9496000C946E0060
:100040000C946E000C946E000C946E000C946E0078
:100050000C946E000C946E000C946E000C946E0068
:100060000C946E000C946E0014774C452785841711
:100070000405FFDFEFFD7FF75F5755FCBC9CBE36E4
:1000800077DD9C0000000002040003000110030261
:10009000000003020100060004000605002006051A
:1000A000040011241FBECFEFD8E0DEBFCDBF11E0AA
:1000B000A0E0B1E0E0EBFBE002C005900D92A230C1
:1000C000B107D9F721E0A2E0B1E001C01D92AB3148
:1000D000B207E1F70E94CA040C94D6050C94000004
:1000E0008FEF8AB98BB987B18F6087B988B18F607C
:1000F00088B984B5826084BD85B5856085BD86E29A
:1001000087BDEEE6F0E08081826080830895EEE6B0
:10011000F0E08081826080830895EEE6F0E08081E7
:100120008D7F808388B18F6088B908951F920F9268
:100130000FB60F9211242F938F939F93EF93FF93FA
:1001400088B1807F88B980910001813021F48BB122
:10015000E091090111C0823021F48BB1E0910C01D2
:100160000BC0843021F48BB1E0910B0105C08830C5
:1001700059F48BB1E0910A01F0E0E859FF4FE491A6
:10018000EB7F8470E82BEBB998B120910001822FAE
:100190008F7080959F70892B88B9822F880F893046
:1001A00008F401C081E080930001FF91EF919F91DD
:1001B0008F912F910F900FBE0F901F9018959093D5
:1001C0000301809302010895909305018093040137
:1001D00008958FB7F89420910F01309110018FBFCF
:1001E000C90108952FB7F8949093100180930F01DF
:1001F0002FBF089583B184FF02C092E001C090E058
:1002000086958170892BE0910601EF7094E0E99F5B
:10021000F0011124E80FF11DEA57FF4FE491E0933C
:100220000601E07391F0E0930D0180910F01909130
:100230001001E03211F4019601C001979093100172
:1002400080930F0181E080930E01089585B1826152
:1002500085B90C94FA000E94FA0080910E0188235F
:1002600049F0E0910401F0910501309709F00995FA
:1002700010920E01089588EB9BE0909314018093F7
:10028000130180910101811106C081E08093010179
:100290002B980C948700833081F481E080930101D6
:1002A0002B980E94870010920A0185E080930B0131
:1002B00010920C0110920901089510920101089505
:1002C00088EB9BE0909314018093130180910101CE
:1002D000882311F0833031F481E0809301012B9861
:1002E0000C948700813011F482E003C0823019F44D
:1002F00081E0809301010895809107018230F1F03F
:100300002CF4882349F0813049F50AC08430B1F0DB
:100310008CF0853019F516C00E9487002B9A03C017
:100320000E948D002B9884E190E0909312018093BD
:10033000110114C02B980E948D00F5CF2B9A0E94BA
:100340008700F1CF2B980E948D008CE390E0909372
:100350001201809311018FEF8093070180910701B3
:100360008F5F80930701089580910B018930C0F061
:1003700010920B0180910A01893060F010920A01FD
:1003800080910901811111C080910C0181110DC072
:1003900081E009C080910A018F5F80930A0108956E
:1003A00080910B018F5F80930B010895809109016B
:1003B0008930D0F01092090180910C01853070F0E5
:1003C00010920C010E94B40180910A01811111C0A8
:1003D00080910B0181110DC081E009C080910C0159
:1003E0008F5F80930C010895809109018F5F809346
:1003F0000901089580910B0181110EC089E080935D
:100400000B0190910A01911101C003C080910A0172
:10041000815080930A01089580910B01815080934F
:100420000B0180910A01811115C080910B0181118E
:1004300011C080910C0181110DC0809109018111C1
:1004400009C089E080930A0180930B0110920C018E
:1004500010920901089580910901811112C089E06B
:100460008093090180910C01811105C085E0809382
:100470000C010C94FA0180910C01815080930C01C5
:1004800008958091090181508093090180910A01AA
:10049000811119C080910B01811115C080910C014F
:1004A000811111C08091090181110DC0809101015C
:1004B000882349F089E080930A0180930B01109210
:1004C0000C0110920901089588EB9BE090931401B0
:1004D000809313012B9A86E690E20197F1F70000D2
:1004E0002B9880910101833029F481E080930101F0
:1004F0000E94870090910D0180910101903241F49A
:10050000823010F40C94B401823051F40C94D60172
:10051000823010F40C94FA01823011F40C942B0206
:10052000089580910801823020F00E942B021092E1
:10053000080180910A01811115C080910B01811180
:1005400011C080910C0181110DC0809109018111B0
:1005500009C088EB9BE0909314018093130183E022
:1005600080930101809108018F5F809308010895B5
:10057000BF92CF92DF92EF92FF920F931F93CF9390
:10058000DF93EC012115310511F424E130E0011570
:10059000110511F406E910E0FB0190819423BB24BE
:1005A000B3948881992311F0B12C06C0811104C045
:1005B000B8828FE090E012C0882309F44BC0BB20C2
:1005C00091F08130D9F48091190190911A01892B11
:1005D00009F040C082E0888385E090E090931A01A2
:1005E0008093190137C08230A8F1843098F5E11466
:1005F000F10411F0F701099518822CC0823069F4DA
:100600008091190190911A01892B21F583E088834B
:1006100010931A01009319011DC0833041F4809199
:10062000190190911A01892BA9F484E012C0843039
:1006300089F48091190190911A01892B59F4309312
:100640001A0120931901C114D10411F0F601099582
:1006500085E088838881833018F0B11001C018824A
:10066000DF91CF911F910F91FF90EF90DF90CF908E
:10067000BF9008952D9A8AE080930A0180930B0120
:1006800080930C01809309019BE090930A01909361
:100690000B0190930C019093090122E333EB42E0AC
:1006A000215030404040E1F700C000C02CE02093D2
:1006B0000A0120930B0120930C012093090152E3BE
:1006C00063EB32E0515060403040E1F700C000C0C1
:1006D0003DE030930A0130930B0130930C013093CD
:1006E000090142E353EB62E0415050406040E1F7C2
:1006F00000C000C020930A0120930B0120930C013D
:100700002093090122E333EB42E021503040404086
:10071000E1F700C000C090930A0190930B01909301
:100720000C019093090152E363EB22E051506040C9
:100730002040E1F700C000C080930A0180930B01C4
:1007400080930C018093090132E343EB52E0315076
:1007500040405040E1F700C000C036E130930A014C
:1007600080930B0180930C018093090162E323EBDA
:1007700042E0615020404040E1F700C000C028E165
:1007800020930A0180930B0180930C01809309014F
:1007900052E363EB42E0515060404040E1F700C05B
:1007A00000C080930A0130930B0180930C01809369
:1007B000090152E363EB42E0515060404040E1F7F1
:1007C00000C000C080930A0120930B0180930C01AC
:1007D0008093090152E363EB42E051506040404096
:1007E000E1F700C000C080930A0180930B013093B1
:1007F0000C018093090152E363EB42E051506040E9
:100800004040E1F700C000C080930A0180930B01D3
:1008100020930C018093090152E363EB42E05150B5
:1008200060404040E1F700C000C080930A0180931F
:100830000B0180930C013093090152E363EB32E02A
:10084000515060403040E1F700C000C080930A0181
:1008500080930B0180930C012093090142E353EB39
:1008600062E0415050406040E1F700C000C080931A
:100870000A0180930B0180930C018093090182E3AC
:1008800023EB32E0815020403040E1F700C000C04F
:1008900090930A0142E353EB62E0415050406040C4
:1008A000E1F700C000C090930B0182E323EB32E03C
:1008B000815020403040E1F700C000C090930C010F
:1008C00042E353EB62E0415050406040E1F700C02A
:1008D00000C09093090182E393EB22E081509040A5
:1008E0002040E1F700C000C080E18093090132E3BD
:1008F00043EB52E0315040405040E1F700C000C0AF
:1009000081E18093090162E383EB92E061508040D2
:100910009040E1F700C000C082E18093090122E32A
:1009200033EB42E0215030404040E1F700C000C0CE
:1009300089E180930C0152E363EB92E051506040F7
:100940009040E1F700C000C080930B0122E333EB3D
:1009500042E0215030404040E1F700C000C08093A9
:100960000A0152E363EB82E0515060408040E1F7BE
:1009700000C000C08AE180930A0192E323EB32E0D9
:10098000915020403040E1F700C000C085E18093E5
:100990000A0108950E9470000E94260184E692E0F8
:1009A0000E94E400239A22982A9A8091B0008260E3
:1009B0008093B0008091B10087608093B1008BE696
:1009C0008093B3008091700082608093700080916A
:1009D0006800816080936800D89A80916B008F7D59
:1009E00080936B0083B7846083BF8AE080930A01A1
:1009F00080930B0180930C018093090178940E94ED
:100A00003A0310920A0185E080930B0110920C01C9
:100A10001092090188EB9BE09093140180931301DD
:100A2000C2E3D0E00E942B018BE3C82E81E0D82ED8
:100A300090E6E92E91E0F92E09E110E021E030E0A6
:100A400044E063E270E088E191E00E94B8028091A6
:100A5000160190911701892B71F4D0931701C0935F
:100A600016018BB194E089278BB980910101811126
:100A700002C00E9491028091110190911201892B74
:100A800031F480910101833011F40E947C01809146
:100A9000130190911401892B29F68091010188237B
:100AA00009F2809170008D7F809370000E948D000C
:100AB00080916B00806280936B0083B7816083BFFD
:100AC000889583B78E7F83BFADCF1F920F920FB6ED
:100AD0000F9211242F933F934F935F936F937F93C4
:100AE0008F939F93AF93BF93EF93FF9383B78E7FC3
:100AF00083BF0E948700E0E7F0E08081826080830E
:100B0000EBE6F0E080818F7D808388EB9BE0909323
:100B1000140180931301FF91EF91BF91AF919F91C9
:100B20008F917F916F915F914F913F912F910F9096
:100B30000FBE0F901F9018951F920F920FB60F9235
:100B400011248F939F938091190190911A0100971E
:100B500029F0019790931A01809319018091160151
:100B600090911701009729F00197909317018093B6
:100B700016018091110190911201009729F00197BF
:100B800090931201809311018091130190911401AF
:100B9000009729F0019790931401809313019F917E
:100BA0008F910F900FBE0F901F901895F894FFCF64
:020BB000010141
:00000001FF
